:020000041000EA
:1010000020090020191000109514001097140010EA
:1010100000040000000000000248854602488047A6
:1010200012E0000020090020D1100010002A0AD090
:10103000042A00D20422920803680B60013A02D00D
:1010400004300431F8E7704711481249124AFFF79B
:10105000EDFF12481249134AFFF7E8FF12481349FF
:10106000134AFFF7E3FF13481349002906D0890804
:1010700000220260013901D00430FAE70F488546AA
:101080000F4880470F488047002000210E4A9746AE
:10109000C0340010900A002000000000C03400108E
:1010A000900A002000000000B03300100C00002067
:1010B0001001000020090020640100002009002028
:1010C000C5140010CD10001071130010C0467047F9
:1010D000C046704780B582B000AF021CFB1D1A707D
:1010E000FB1D1B78082B3AD89A001F4BD3181B689E
:1010F0009F461E4B181C3F2100F0C0F830E01C4BEF
:10110000181C3F2100F0BAF82AE01A4B181C3F21A6
:1011100000F0B4F824E0184B181C3F2100F0AEF8A2
:101120001EE0164B181C3F2100F0A8F818E0144BE5
:10113000181C3F2100F0A2F812E0124B181C3F21AE
:1011400000F09CF80CE0104B181C3F2100F096F8C2
:1011500006E00E4B181C3F2100F090F800E0C0465E
:10116000BD4602B080BDC0464833001008310010B3
:101170004831001088310010C831001008320010CA
:101180000833001088320010C832001048320010B6
:1011900080B584B000AF78607B68FB60354B1B780E
:1011A000022B05D8334B1A78334B1B789A4225D241
:1011B000314B1B781A1C131C5B009B18FA68D31860
:1011C00000221A702C4B1B781A1C131C5B009B18F6
:1011D0000133FA68D31800221A70274B1B781A1CA7
:1011E000131C5B009B180233FA68D318FF221A7095
:1011F000214B1B780133DAB21F4B1A701D4B1B7841
:101200001A1C131C5B009B18FA68D31800221A7072
:10121000184B1B781A1C131C5B009B180133FA68CF
:10122000D318FF221A70134B1B781A1C131C5B0077
:101230009B180233FA68D31800221A700D4B1B78E2
:101240000133DAB20B4B1A700A4B1B78142B02D9FC
:10125000084B00221A70084B1B78142B02D9064B3E
:1012600000221A70FB68181C3F2100F007F8BD46E9
:1012700004B080BD2009002021090020B0B588B04D
:1012800000AF786039602023BB6180239B037B61C2
:10129000144B3B61134BFB6017E07B681B78BB6012
:1012A0007B6801337B60BB683A69F9687869BD691E
:1012B000FC691B0608245B001560C04600D208606C
:1012C000013C086000D0F6E7FC613B685A1E934180
:1012D000DBB23A68013A3A60002BDED1BD4608B075
:1012E000B0BDC0460400044080B582B000AF021C0F
:1012F000FB1D1A70084B084A5169084A0A405A6196
:10130000054B054A5169FA1D127812020A435A61C7
:10131000BD4602B080BDC04600000440FF07FFFF8D
:1013200080B582B000AF021CFB1D1A70084B084A42
:101330005169084A0A405A61054B054A5169FA1D2C
:10134000127812040A435A61BD4602B080BDC046FD
:1013500000000440FFFF07FF80B500AF034B5A6A4F
:1013600040231340181CBD4680BDC0460000044009
:1013700080B594B000AFFB1D00221A703B1C4F33A8
:1013800000221A7026E03B1C4F331A78131C5B00B6
:101390009B183A1C08320021D1543B1C4F331A7859
:1013A000131C5B009B1801333A1C08320021D154F6
:1013B0003B1C4F331A78131C5B009B1802333A1CFA
:1013C0000832FF21D1543B1C4F333A1C4F32127864
:1013D00001321A703B1C4F331B78142BD3D900F009
:1013E0001FFD8020FFF780FF1020FFF799FFC82323
:1013F00059000B4AFB1D081C012100F099FB031C3E
:10140000BB64BB6C181C00F025FC064A3B1C08336F
:101410000A20012100F08CFB021C034B1A60FEE73E
:101420002D140010911100103C09002080B584B0EB
:1014300000AF7860FFF790FF031C002B25D17B687D
:10144000FB60FB681B78092B08D1114B1B68181C2B
:1014500000F040FCFB6800221A7005E0FB681B7876
:101460000133DAB2FB681A70FB681B78092B05D1CF
:10147000074B1B68181C00F0EDFB06E072B6FB681A
:101480001B78181CFFF726FE62B6BD4604B080BD6F
:101490003C090020FEE7FEE7FEE7FEE7FEE7FEE789
:1014A000FEE7FEE7FEE7FEE7FEE7FEE7FEE7FEE714
:1014B000FEE7FEE7FEE7FEE7FEE7FEE7FEE7FEE704
:1014C000FEE7FEE780B500AF00F002F8BD4680BD44
:1014D00080B582B000AF114B1A68FF231B02134086
:1014E0001B0A7B600D4B1A68FF2313403B607B682F
:1014F000002B0CD07B681A023B68D3180848191CD3
:1015000000F0B6FD031C5A00064B1A6002E0054BC2
:10151000054A1A60BD4602B080BDC04600030140C6
:10152000000024F4400900200048E80180B584B0A0
:1015300000AFF860B9607A6001235B42181CBD46B9
:1015400004B080BD80B584B000AFF860B9607A6047
:1015500001235B42181CBD4604B080BD80B584B039
:1015600000AFF860B9607A600023181CBD4604B073
:1015700080BDC04680B584B000AFF860B9607A60C5
:1015800001235B42181CBD4604B080BD80B500AF8E
:1015900001235B42181CBD4680BDC04680B582B0A9
:1015A00000AF786039603B68002B02D001235B42BA
:1015B00001E002235B42181CBD4602B080BDC0465C
:1015C00080B582B000AF786039607A683B689A4233
:1015D00002D101235B4201E002235B42181CBD469D
:1015E00002B080BD80B582B000AF786001235B425D
:1015F000181CBD4602B080BD80B586B000AF7860D3
:10160000144B7B61144B1B68002B08D1124B134AFF
:101610001A60114B1A687B69D218114B1A600E4B75
:101620001B683B610C4B1B681A1C7B68D318073383
:1016300007229343FB600A4B1B68FA689A4201D366
:10164000002303E0044BFA681A603B69181CBD468E
:1016500006B080BD7035000028090020900A0020E7
:101660002C09002080B582B000AF786001235B4276
:10167000181CBD4602B080BD80B582B000AF786056
:1016800001235B42181CBD4602B080BD80B582B00C
:1016900000AF7860396001235B42181CBD4602B080
:1016A00080BDC04680B500AF01235B42181CBD461B
:1016B00080BDC04680B500AF01235B42181CBD460B
:1016C00080BDC04680B582B000AF7860FEE7C046FE
:1016D00080B500AFBD4680BD80B582B000AF7860F8
:1016E00001235B42181CBD4602B080BDB0B582B07C
:1016F00000AF021C3960FB1D1A70FB1D1B787F2B8D
:1017000032D93049FB1D1B781A1C0F231340083BAC
:1017100098082C4AFB1D1B781C1C0F232340083BF8
:101720009B0806339B00D3185B68FA1D1278141CC3
:1017300003222240D200FF24251C95402A1CD243BC
:101740001A403B689C01FF231C40FB1D1B781D1C9D
:1017500003232B40DB00251C9D402B1C1A43831DBB
:101760009B00CB185A6029E0174BFA1D127852B231
:1017700092081549F81D007840B28008C0308000FA
:101780004158F81D0078041C03202040C000FF24AD
:10179000251C8540281CC043084039688C01FF2166
:1017A0000C40F91D09780D1C03212940C900251C96
:1017B0008D40291C0143C0329200D150BD4602B079
:1017C000B0BDC04600ED00E000E100E080B582B0B1
:1017D00000AF78607B685A1E0C4B9A4201D90123F6
:1017E00010E00B4B7A68013A5A6001235B42181CE7
:1017F0000321FFF77BFF064B00229A60044B072270
:101800001A600023181CBD4602B080BDFFFFFF0018
:1018100010E000E080B586B000AF7860504A7B6889
:101820005B01D31808331B68FB604E4B1B68002B11
:1018300006D17B685A014A4BD2184A4B1A608BE09A
:10184000484B1B687B61FB683B6181E07B699B685F
:101850003A69D31A3B613B69002B5ADA7B69DB6931
:10186000002B1CD07B69DB697A6851013C4A8A18DD
:101870009A617B69DA693A497B685B01CB181C3352
:101880001A60374A7B685B01D31818337A691A608B
:101890007B685A01324BD2187B69DA6114E0314B14
:1018A0001A682F497B685B01CB1818331A602D4BDF
:1018B0001B687A6851012A4A8A18DA617B685A01E2
:1018C000274BD218274B1A60254A7B685B01D31837
:1018D00018331B689A683B69D21821497B685B0101
:1018E000CB1808331A601E4A7B685B01D318183383
:1018F0001B681B497A6852018A181832126891686D
:1019000017487A6852018218083212688A1A9A6057
:1019100022E03B69002B18DB7B699B69002B14D10B
:101920000F4A7B685B01D3181C337A691A607B68A5
:101930005A010B4BD2187B699A613A6908497B6856
:101940005B01CB1808331A6006E07B699B697B61F9
:101950007B69002B00D079E7BD4606B080BDC0464C
:10196000440900203009002080B584B000AF7860C1
:101970007B685A01274BD318FB60FB68DB69002B9F
:1019800007D1FB689B69002B03D1234B00221A600F
:101990003DE0FB68DB69002B14D1FB689A691E4BA4
:1019A0001A601D4B1B680022DA61FB689B69FA68AC
:1019B00092699168FA6892688A189A60FB680022B6
:1019C0009A6124E0FB689B69002B07D1FB68DB6907
:1019D00000229A61FB680022DA6118E0FB68DB698B
:1019E000FA6892699A61FB689B69FA68D269DA6160
:1019F000FB689B69FA6892699168FA6892688A182C
:101A00009A60FB6800229A61FB680022DA61BD4699
:101A100004B080BD440900203009002080B582B0A8
:101A200000AF1F4B1B687B602DE07B681B79002B90
:101A30000ED17B681B68181CFFF796FF7B6801229C
:101A40005A717B681A697B685B69181C904717E0BC
:101A50007B681B79012B1ED17B681B68181CFFF764
:101A600083FF7B68DA687B689A607B681B68181C58
:101A7000FFF7D0FE7B681A697B685B69181C90478A
:101A8000074B1B687B607B68002B05D07B689B68DD
:101A9000002BCAD000E0C046BD4602B080BDC046A3
:101AA0003009002080B582B000AF0E4B1B687B6010
:101AB0000D4B1B685A1C0C4B1A607B68002B0ED018
:101AC0007B689B68012B05D97B689B685A1E7B68E5
:101AD0009A6004E07B6800229A60FFF79FFFBD4692
:101AE00002B080BD300900203809002080B582B0E6
:101AF00000AF00237B600C4B00221A6000F0A4F9B9
:101B0000FA235B01181CFFF761FE031C7B600123B5
:101B10005B42181C0121FFF7E9FD044B00221A600B
:101B2000BD4602B080BDC046300900203409002007
:101B300080B588B000AFF8607A603B603B1C0B3327
:101B40000A1C1A700023FB610023BB6100237B6128
:101B50003B1C0B331B78002B06D03B1C0B331B7834
:101B6000012B01D001237B61FB68002B01D10123F4
:101B70007B61FB68002B01D101237B617B68002B1B
:101B800001D101237B617B69002B59D10023BB610B
:101B900053E02E4B1A68BB69DA400123134049D148
:101BA000BB6901229A40294B1B681A43274B1A60D4
:101BB000274BBA695201B969D1502549BB695B010C
:101BC0003A1C0B32CB1812781A71214ABB695B019F
:101BD000D31801225A71FB685A1C1D49BB695B016D
:101BE000CB1808331A601A4ABB695B01D3180C334F
:101BF000FA681A60164ABB695B01D31810337A6819
:101C00001A60134ABB695B01D31814333A681A602F
:101C10000F4ABB695B01D3181C3300221A600C4ABF
:101C2000BB695B01D318183300221A60BB6901330A
:101C3000FB6105E0BB690133BB61BB69092BA8D916
:101C4000FB69181CBD4608B080BDC04634090020A1
:101C50004409002080B584B000AF78600023FB60A9
:101C60007B680A2B01D90123FB60184B1A687B683B
:101C7000013BDA400123134001D10123FB607B6863
:101C8000013B134A5B01D31808331B68002B01D1B9
:101C90000123FB60FB68002B13D17B68013B0C4ADE
:101CA0005B01D3185B79002B0BD07B68013B084AA2
:101CB0005B01D31800225A717B68013B181CFFF7A7
:101CC000A9FDFB68181CBD4604B080BD3409002086
:101CD0004409002080B584B000AF78600023FB6029
:101CE0007B680A2B01D90123FB60134B1A687B68C0
:101CF000013BDA400123134001D10123FB60FB6863
:101D0000002B13D17B68013B0C4A5B01D3185B7934
:101D1000012B0BD07B68013B181CFFF725FE7B686D
:101D2000013B064A5B01D31801225A71FB68181C5B
:101D3000BD4604B080BDC0463409002044090020DF
:101D400080B584B000AF78600023FB607B680A2B0D
:101D500001D90123FB60154B1A687B68013BDA400F
:101D60000123134001D10123FB60FB68002B18D134
:101D70007B68013B0E4A5B01D3185B79002B04D1D1
:101D80007B68013B181CFFF7EFFD7B68013B0122DC
:101D9000111C99400B1CDA43044B1B681A40034B7F
:101DA0001A60FB68181CBD4604B080BD34090020D1
:101DB0004409002080B500AF024B1B68181CBD46CB
:101DC00080BDC0463809002090B585B000AF78606E
:101DD000786800F0E5FF031C0C1C181C211C0D4B3F
:101DE0000B4A00F0B5F9031C0C1C181C211C0A4AF4
:101DF0000A4B00F0ADF9031C0C1C181C211C00F050
:101E000087F9031CFB60FB68181CBD4605B090BD3C
:101E100000000000000020400000000000408F4053
:101E200080B500AF00F00CF800F00EF8FFF75EFE92
:101E300000F002F8BD4680BD80B500AFBD4680BD54
:101E400080B500AFBD4680BD80B500AF0A4BC02253
:101E50005A62C046084B5A6A04231340FAD1074B12
:101E6000064A12681A6000F011F8034BC3225A6246
:101E7000FFF72EFBBD4680BD00000140000301407E
:101E800080B500AF0023181CBD4680BD80B584B06E
:101E900000AF0023FB600023BB60184B1A68FF23D0
:101EA0001B0213401B0AFB600423BB60134B1B681F
:101EB0007B607B68FF2293437B60104B7A681A60DB
:101EC0000E4B0E4A12680E490A431A60C0460B4B6D
:101ED0001A688023DB051340F9D1FA68BB689A427F
:101EE00008D0FA68BB689A4202D200F069F801E0B3
:101EF00000F008F8BD4604B080BDC04600030140B4
:101F00000000F03F80B584B000AF2A4B1A68FF2371
:101F10001B0213401B0AFB600423BB60BB689A00D2
:101F2000FB689A4224D2FB68032293430433FB608C
:101F3000FB689B08FB601F4B1B687B60FB681B02F8
:101F40001B041A0C79681C4B0B4013437B60194B24
:101F50007A681A60174B174A126818490A431A60C0
:101F6000C046144B1A688023DB051340F9D11CE0EE
:101F7000104B1B687B60BB681B021B041A0C796842
:101F80000D4B0B4013437B600A4B7A681A60094B78
:101F9000084A126809490A431A60C046054B1A6884
:101FA0008023DB051340F9D100E0B7E7BD4604B05C
:101FB00080BDC04600030140FF00FFFF0000F03F6E
:101FC00080B584B000AF274B1A68FF231B02134073
:101FD0001B0AFB600423BB60FB689A00BB689A4243
:101FE0001FD2FB689B00FB601E4B1B687B60FB687D
:101FF0001B021B041A0C79681B4B0B4013437B60BC
:10200000184B7A681A60174B164A126817490A4328
:102010001A60C046134B1A688023DB051340F9D1C0
:102020001CE0104B1B687B60BB681B021B041A0C76
:1020300079680D4B0B4013437B600A4B7A681A603A
:10204000084B084A126809490A431A60C046054B02
:102050001A688023DB051340F9D100E0BCE7BD46D8
:1020600004B080BD00030140FF00FFFF0000F03F0F
:10207000002934D00123002210B488422CD301243B
:102080002407A14204D2814202D209011B01F8E7D0
:10209000E400A14204D2814202D249005B00F8E789
:1020A000884201D3401A1A434C08A04202D3001BB5
:1020B0005C0822438C08A04202D3001B9C082243E8
:1020C000CC08A04202D3001BDC082243002803D026
:1020D0001B0901D00909E3E7101C10BC7047002858
:1020E00001D00020C04307B4024802A1401802906A
:1020F00003BDC046190000000029F0D003B5FFF76A
:10210000B9FF0EBC4243891A1847C0467047C04603
:1021100038B50E4B0C4A041C0D1C00F0A7FE00281D
:1021200004D1201C291C00F007FE38BD074B064ACD
:10213000201C291C00F07EFA00F0FEFD8023190609
:102140004018F2E7C046C046000000000000E04131
:10215000F0B5564644465F464D46F0B44F001D1C50
:102160000B03141C1A0B7B0D87B0061C9246984675
:10217000CF0F002B21D1024300D149E15346002B60
:1021800000D1E4E1504600F07BFE031E272B00DD6A
:10219000D8E1083B5146994028228846111A321C42
:1021A000CA4041460A4392469E40D84B0022181A24
:1021B000002180469146039111E0D54883423ED0EC
:1021C000802153464A031A43D000710F0843D14A75
:1021D000824600230020F600904499460390291C73
:1021E000201C251C4A000C03CB0F240B520D9B46D0
:1021F00031D1211C014300D112E1002C00D19DE11D
:10220000201C00F03DFE272800DD91E1031C282260
:10221000083B291C121A9C40D1400C439D40BB4BEB
:1022200059461A1A794000204B46019103430F2B5F
:1022300026D89900B84B8C46634419688F46111C08
:10224000314300D0DFE0082600200221B14682465B
:1022500000260391C3E7AE48824200D1C9E0802145
:102260004B031C43AB49680FE4000443ED005218D4
:102270000020594679404B46019103430F2BD8D992
:1022800042443304290404921A0C0F0C101C7843A6
:10229000360C331C80462D0C7B43301C6843111CCC
:1022A00069439C4643468346180C0818604484459D
:1022B00000D91FE1010C4346039119040B0C0004E3
:1022C000C0182104240C0590101C6243090C0292D2
:1022D0004843321C66434A43029BB146060C904673
:1022E000B4461A1C62444244904502D980267302C7
:1022F0009944160CB046C14400044B46060C120427
:102300000293931956463204100C021C6A439C46F1
:10231000031C7B439146320C574398461B0C9A464C
:10232000D144B94455434F4502D980277E02AD19A7
:102330004B461F0C4646ED191F0433041E0C031CAC
:102340004B436043514354431A0C8018B046401825
:1023500047449A46814202D980214E02A419039B28
:102360001A1C62445A44624589414E425146B34662
:1023700003040E049C460299330C6344CE18B04605
:10238000C246DA44D219BA42BF4151467B426F1865
:10239000F9189946DA459B415E42029BB34698453F
:1023A000B64176425B461E43000C49459B41AF4215
:1023B000AD4136186F4258423843361805983419E3
:1023C00056020643CB0D6402701E8641D20D1643A1
:1023D00049021C430E43E0012FD50127049D3740DD
:1023E00073083E1CE00701351E430495064364084C
:1023F00023E0231C2B430320002B00D039E70024CB
:102400000025022035E70C22032391460393E6E6DC
:10241000042600230120B1469A4600260390DEE6FA
:1024200000240025012024E703985446022844D0C4
:10243000032800D1EAE0012860D0049A37495018F7
:10244000002800DC95E00F273740042F05D0311D10
:10245000B142B641754264190E1CE10105D5304800
:10246000049A8023DF000440D0192E49884224DCDE
:10247000019B6507F6086402420501272E43240BE1
:10248000520D1F4000200021090D0D052543264C4B
:1024900012052C4014436300301C5E08FF07311CFA
:1024A000394307B03CBC90469946A246AB46F0BDC6
:1024B0005A462E1C01920228BAD1019E01273740AC
:1024C000134A00240026DDE7544601970398ADE740
:1024D00001260027154C76420D4AD3E72E1CA5E7AE
:1024E000802213035146194235D10B431D032C0B97
:1024F000074AC7E780214B029B44DBE6019B002291
:102500001840C7B200240026BCE7C0460DFCFFFF00
:10251000FF07000001FCFFFF6C330010FF03000009
:10252000FFFFFFFEFE070000FFFF0F80FFFF0F0011
:10253000041C283CA5402C1C002570E600F0A0FCE3
:10254000203060E6283B9E40B24600262DE600F093
:1025500097FC203019E61C4206D11C432603340B9D
:102560005F462E1C2E4A8DE70B431803040B2C4AA2
:1025700088E72C4F049D7B1B382B06DD019E01272D
:1025800037400022002400267CE71F2B21DC049A20
:10259000254F351CD119201C8E40DD408840321C4F
:1025A0002843561EB241061C1643DC400F2333401D
:1025B000042B05D0371DB742B641714264183E1C4A
:1025C000250217D5019B01271F4001220024002668
:1025D00058E71648049A211C871AF9400D1C202B35
:1025E00012D0134BD01884402643721E96412E43BE
:1025F0000024DBE7019A6507F6086002012717400F
:102600002E43040B00223DE70024EDE780210F0359
:102610003C43019824030127240B0740004A31E77B
:10262000FF07000002FCFFFF1E040000E2FBFFFFAB
:102630003E040000F0B557464E464546E0B4071C40
:102640000D034E00680ACC0F790F08438446111C15
:1026500018035A00FD00400ADF0F4B0F1843CA4B06
:10266000C900760D520D8A469A4200D1E0E001235E
:102670005F40B946BC4200D1A8E0B71A002F00DC89
:1026800010E1002A12D15246024300D1D4E0013FAA
:10269000002F00D060E151466F1ABD42AD41624645
:1026A0006B42101A3D1CC31A371C24E0B64A9642EE
:1026B00000D1E3E080210B041843382F00DD23E133
:1026C0001F2F00DD66E12021C91B021C53468A40F2
:1026D000FB401A4353468B40191C4B1E9941031C67
:1026E0000A43FB40AA1A67469542AD41F81A6B426D
:1026F000C31A151C371C1A0200D4C7E05E02710A07
:1027000088464246002A00D1F0E0404600F0B8FB7F
:10271000021C083A1F2A00DDF1E02823181A2E1C9B
:102720004146C6409140331C0B439540974200DD23
:10273000A9E0D01B411C1F2900DD12E11F273A1A16
:102740002E1C181CCE409040954030436A1E954187
:10275000CB400543012100270F262E40042E00D137
:1027600072E02E1DAE42AD41684280221B18012549
:10277000100418402C40002807D0834FB94200D1E4
:10278000B0E0824A0F1C13400131F20849055E0790
:102790003243DB08480D012800DC79E01B03780593
:1027A0001E0B470D00200021090D7D050B05784FFC
:1027B0001E43101C37406A0817437E007108E40767
:1027C00021431CBC90469946A246F0BDB31A002B8B
:1027D00000DCA6E0002A3ED06B4A96424ED0802113
:1027E0000F043843382B00DC18E153461843002708
:1027F0000022002800D001225219AA42AD416744AC
:102800006B42FB18151C371C1E023FD55E487E1C10
:10281000864200D17BE15D4901222A400B406808D5
:10282000151CD90705430D435B08B91C371C93E7FA
:10283000014300D11BE71CE7711C371C0F266346C0
:102840002E40042E00D08CE7802201261004344054
:1028500018402E1C8FE752460243EDD0013B002B5F
:1028600009D157467919A94292415542604443190A
:10287000371C0D1CC8E744498E42B3D18020634603
:102880000101371C68E7BF1A404A1340791C63E70F
:10289000151C1D4300D121E2002F3ED080263103BC
:1028A0000B437BE7002F00D086E0721C51054B0DD7
:1028B000012B00DCF0E05746EA1B95429B4167463E
:1028C000391A5B42C91A88460B0200D49DE054466F
:1028D000651BAA459241C01B5742C31B9846371C33
:1028E0004C460EE70F1C002600225BE7281C00F078
:1028F000C7FA2030021C083A1F2A00DC0DE72838EE
:1029000085402B1C002511E7574638430023002241
:10291000002800D1E6E60122E4E61D032E0B002785
:1029200040E7002B00D0D9E0771C79054A0D012A39
:1029300000DC95E0144B9F4200D1FEE0514649195E
:10294000A942AD4162466B428018C2184908D507BA
:102950000D435308B11CFFE60B498E4200D0ACE694
:102960008CE7061C1F3E1F1CF7403E1C202973D01D
:102970003F22101A83401D436B1E9D4135430121A8
:1029800000230027E8E6C046FF070000FFFF7FFFA7
:10299000FFFF0F803B1C203B011CD9400B1C202F4C
:1029A0005CD04022D71BB840021C50460243511E47
:1029B0008A411A43002395E67F42002E40D0CA4C3C
:1029C000A24200D11FE1802166460B041E43B4469B
:1029D000382F00DDA9E01F2F00DD3DE12023DE1BA5
:1029E000291C6446B440F940B5406B1E9D4121430B
:1029F00063460D43FB4057467D1BC01AAA459B41C9
:102A00005F42C31B4C46171C75E60D1C154320D1B5
:102A100000240121002304260027B6E61F2B4ADCF0
:102A20002021C91A071C52468F40DA403A435746C4
:102A30008F40391C4F1EB941D8400A43071CDBE6C2
:102A400064462C4369D1511C031C5546171C4C4647
:102A500082E6151C371C54E600238CE70022A4E70D
:102A600067462F43002E00D0D4E0002F00D126E18E
:102A70005346034300D1E4E051464F19AF42AD4104
:102A800060446E4283191E0200D44EE197483D1CFB
:102A90000340022101275FE661462943002E29D128
:102AA000002976D151460143B2D0031C55464C460D
:102AB0000121002750E61F1C203F011CF9400F1C7C
:102AC000202B00D1C6E04022D31A9840021C504669
:102AD0000243531E9A413A4300278DE65B42002E83
:102AE00030D167462F4300D0C8E0511C031C554627
:102AF000171C31E6002965D15746074300D1C8E0CD
:102B0000031C802055464C460101774F24E6802364
:102B1000371C19010426002337E6013F002F6ED130
:102B200054466146651B401A68E767463D430023EB
:102B3000002D00D15FE701255DE7802631010023EC
:102B4000042622E668498A4200D1C1E08027664611
:102B500039040E43B446382B00DDA2E01F2B00DD04
:102B6000D0E02021C91A2E1C67468F408D40DE40E0
:102B70003E43291C67464D1EA941DF40351C0D43CD
:102B80003E1C554455459B4130185E428319171C25
:102B90003AE65646064354D05746EA1B63469542EA
:102BA000B641191A7342CB1A1E0200D4A2E07D1B53
:102BB0006446AA45BF41001B7A42831A4C46012154
:102BC0000027C9E5564606433FD062468021570795
:102BD000ED08D3080A033D43134208D0C608164245
:102BE00005D15546EC0845072543331C4C46680F74
:102BF000DB0080260343ED0031013B4FACE53A4951
:102C00008A4200D0E4E68026031C55464C4631013A
:102C1000171CA1E5002F4CD05346034315D0624644
:102C20008026ED085107D30837030D433B42DED021
:102C3000C2083A42DBD15546E9084507131C0D434B
:102C4000D5E763460121002786E5802739016346E1
:102C5000254F81E500223AE73C1C203C6646E640D1
:102C6000331C202F5FD04024E71B6646BE40311C3A
:102C70000D43691E8D411D430023BCE6013B002B23
:102C800022D155445545BF417B426044C318171CAF
:102C9000BAE58021042200240901154B5642124F47
:102CA00073E563461D430026002D00D169E7012529
:102CB00067E78022031C554611010B4F4CE5031CAE
:102CC00055460121002747E507498A4200D042E7DF
:102CD0008021031C55460901171C3DE57F057F0D2A
:102CE000002600225EE5C046FF070000FFFF7FFFD1
:102CF000FFFF7F001D1C154300D189E6151C012133
:102D0000002729E51F1C203F6146F940202B10D0E9
:102D10004026F31A67469F403B1C1D436B1E9D4196
:102D20000D4300262DE70021A2E73D1C01210027CD
:102D300012E50023F1E7C046134A0B0330B5051C2A
:102D400048001C0BC90F430D0020934211DD0F48B2
:102D500083420FDC802250030D4A0443D01A1F28FF
:102D60000BDD0C4DEB1ADC40221C5042002900D137
:102D7000101C30BD084C0819FBE7C54007482A1C49
:102D80001D18AC402243F0E7FE0300001D040000C4
:102D90003304000013040000FFFFFF7FEDFBFFFF83
:102DA00070B5041E26D000F06BF814490A1A0A28E0
:102DB00013DD0B38844056052403720D250B0026C5
:102DC00000200021301C0E0D33050D4C2B43110546
:102DD0001C400C436500690870BD0B23051C181AC4
:102DE0001535211CC440A940520525030E1C2D0B8E
:102DF000520DE5E7002200250026E1E71E04000051
:102E0000FFFF0F808446101C62468C46191C6346E7
:102E100000E0C0461FB500F003F9002801D40021EE
:102E2000C8421FBD10B500F049F84042013010BD46
:102E300010B500F0F5F8002801DB002010BD0120DE
:102E400010BDC04610B500F0EBF8002801DD0020F1
:102E500010BD012010BDC04610B500F06DF800286F
:102E600001DC002010BD012010BDC04610B500F0EF
:102E700063F8002801DA002010BD012010BDC04613
:102E80001C2101231B04984201D3000C10391B0A9A
:102E9000984201D3000A08391B09984201D300095E
:102EA000043902A2105C40187047C04604030202B5
:102EB000010101010000000000000000F0B594468F
:102EC00047461A03061C580080B4170B420D1948D8
:102ED0000D034C00DB0F2D0B640DC90F9846844287
:102EE00008D0144882420DD00120944212D004BC74
:102EF0009046F0BD2B1C33430120002BF7D10D4829
:102F00008242F1D163463B430120002BEFD10120E7
:102F10009442ECD1BD42EAD16645E8D1414506D0A4
:102F2000002CE4D1281C3043451EA841DFE70020D7
:102F3000DDE7C046FF070000F0B557464E46454660
:102F4000E0B4041C4E000803C90F8A46171C590040
:102F50001A03050B700D160B4A0D3049DB0F9C460A
:102F6000884232D02D498A4235D000280FD1291C01
:102F700021434B424B419846002A0BD0002B1AD1DB
:102F8000E2452CD05546002D18D1012018E0002A2A
:102F9000F6D19046311C39434B424B414146002902
:102FA00006D1002BECD056460120002E08D005E0BB
:102FB0000020002B04D16746002FE6D101235842A0
:102FC0001CBC90469946A246F0BD2B1C2343C9D099
:102FD00002214842F4E7331C3B43C6D0F8E7904255
:102FE00005DC09DA5246002AE8D00120E8E7544619
:102FF000002CE3D10120E3E7B542C3D807D000207D
:10300000B542DDD250460028D8D00120D8E7BC42D6
:10301000B8D80020BC42F5D3D2E7C046FF07000075
:10302000F0B544465F4656464D46F0B49446061CFD
:103030001A035800170B420D2E480D034C00DB0FEE
:103040002D0B640DC90F9846844233D02948824223
:1030500036D0002C19D0002A20D1934663463B433A
:10306000584258415B468246002B1DD051460020F5
:10307000002904D14246002A14D1012460423CBCFC
:1030800090469946A246AB46F0BD2B1C33435842AE
:1030900043419B46002AE1D0002BEBD1414515D09E
:1030A0000029EAD10120EAE70028F7D00120002911
:1030B000E5D0E2E72B1C33430220002BDFD1C5E72C
:1030C00063463B430220002BD9D1C2E79442E7DCA0
:1030D00005DBBD42E4D806D00020BD42CFD2002996
:1030E000CBD00120CBE76645DAD800206645F6D381
:0830F000C5E7C046FF07000020
:1030F80020DFFF7F0100000048DFFF7F01000000A4
:1031080000FF0000FF0000FF0000FF0000FF0000BC
:10311800FF0000FF00FF0000FF0000FF0000FF00AD
:1031280000FF0000FF0000FF00000000FF0000FF9C
:103138000000FF0000FF0000FF0000FF0000FF008C
:1031480000FF0000FF0000FF0000FF0000FF00007C
:10315800FF0000FF0000FF0000FF0000FF0000FF6D
:103168000000FF0000FF0000FF0000FF0000FF005C
:1031780000FF0000FF0000FF0000FF0000FF00004C
:10318800FF0000FF0000FF0000FF0000FF0000FF3D
:103198000000FF0000FF0000FF0000FF0000FF002C
:1031A80000FF0000FF0000FF0000FF0000FF00001C
:1031B800FF0000FF0000FF0000FF0000FF0000000C
:1031C8000000FF0000FF0000FF0000FF0000FF00FC
:1031D80000FF0000FF0000FF0000FF0000FF0000EC
:1031E800FF0000FF0000FF0000FF0000FF0000FFDD
:1031F8000000FF0000FF0000FF0000FF0000FF00CC
:10320800FFFFFFFFFFFFFFFFFFFFFFFFFFFFFFFFC6
:10321800FFFFFFFFFFFFFFFFFFFFFFFFFFFFFFFFB6
:10322800FFFFFFFFFFFFFFFFFFFFFFFFFFFFFFFFA6
:10323800FFFFFFFFFFFFFFFFFFFFFFFFFFFFFF0095
:103248000000000000000000000000000000000076
:103258000000000000000000000000000000000066
:103268000000000000000000000000000000000056
:103278000000000000000000000000000000000046
:1032880000FFFF00FFFF00FFFF00FFFF00FFFF0040
:10329800FFFF00FFFF00FFFF00FFFF00FFFF00FF31
:1032A800FF00FFFF00FFFF00FFFF00FFFF00FFFF21
:1032B80000FFFF00FFFF00FFFF00FFFF00FFFF0010
:1032C800FF00FFFF00FFFF00FFFF00FFFF00FFFF01
:1032D80000FFFF00FFFF00FFFF00FFFF00FFFF00F0
:1032E800FFFF00FFFF00FFFF00FFFF00FFFF00FFE1
:1032F800FF00FFFF00FFFF00FFFF00FFFF00FF00D0
:10330800FFFF00FFFF00FFFF00FFFF00FFFF00FFC0
:10331800FF00FFFF00FFFF00FFFF00FFFF00FFFFB0
:1033280000FFFF00FFFF00FFFF00FFFF00FFFF009F
:10333800FFFF00FFFF00FFFF00FFFF00FFFF00008F
:1033480052110010F210001022110010FE1000108F
:103358000A110010161100103A1100102E11001059
:103368004611001080220010DC240010DC2400101C
:10337800B02400102824001028240010D0240010A5
:10338800B024001028240010D02400102824001095
:10339800B0240010C8240010C8240010C82400104D
:0433A800E02400100D
:1033B0002C488746000000000000000000000000CC
:1033C00000000000000000000000000000000000FD
:1033D000254887460000000000000000234887467B
:1033E00023488746234887462348874623488746FD
:1033F00023488746234887462348874623488746ED
:103400000000000000000000214887462148874650
:1034100021488746214887462148874621488746D4
:103420002148874621488746000000000000000030
:1034300000000000000000001D4887461D48874628
:103440001D4887461D488746000000000000000018
:10345000000000000000000000000000000000006C
:103460000000000097140010991400109B14001025
:10347000A51A00109F140010A1140010A31400102E
:10348000A5140010A7140010A9140010AB1400100C
:10349000B9140010BB140010BD140010BF140010AC
:1034A000C1140010C3140010AD140010AF140010AC
:1034B000B1140010B3140010B5140010B7140010AC
:0400000510001019BE
:00000001FF
